{
  "_format": "hh-sol-artifact-1",
  "contractName": "BearCoffee",
  "sourceName": "contracts/BearCoffee.sol",
  "abi": [
    {
      "inputs": [
        {
          "internalType": "string",
          "name": "uri",
          "type": "string"
        },
        {
          "internalType": "bytes32",
          "name": "merkleroot",
          "type": "bytes32"
        },
        {
          "internalType": "address",
          "name": "_proxyRegistryAddress",
          "type": "address"
        }
      ],
      "stateMutability": "nonpayable",
      "type": "constructor"
    },
    {
      "anonymous": false,
      "inputs": [
        {
          "indexed": true,
          "internalType": "address",
          "name": "owner",
          "type": "address"
        },
        {
          "indexed": true,
          "internalType": "address",
          "name": "approved",
          "type": "address"
        },
        {
          "indexed": true,
          "internalType": "uint256",
          "name": "tokenId",
          "type": "uint256"
        }
      ],
      "name": "Approval",
      "type": "event"
    },
    {
      "anonymous": false,
      "inputs": [
        {
          "indexed": true,
          "internalType": "address",
          "name": "owner",
          "type": "address"
        },
        {
          "indexed": true,
          "internalType": "address",
          "name": "operator",
          "type": "address"
        },
        {
          "indexed": false,
          "internalType": "bool",
          "name": "approved",
          "type": "bool"
        }
      ],
      "name": "ApprovalForAll",
      "type": "event"
    },
    {
      "anonymous": false,
      "inputs": [
        {
          "indexed": true,
          "internalType": "contract IERC20",
          "name": "token",
          "type": "address"
        },
        {
          "indexed": false,
          "internalType": "address",
          "name": "to",
          "type": "address"
        },
        {
          "indexed": false,
          "internalType": "uint256",
          "name": "amount",
          "type": "uint256"
        }
      ],
      "name": "ERC20PaymentReleased",
      "type": "event"
    },
    {
      "anonymous": false,
      "inputs": [
        {
          "indexed": true,
          "internalType": "address",
          "name": "previousOwner",
          "type": "address"
        },
        {
          "indexed": true,
          "internalType": "address",
          "name": "newOwner",
          "type": "address"
        }
      ],
      "name": "OwnershipTransferred",
      "type": "event"
    },
    {
      "anonymous": false,
      "inputs": [
        {
          "indexed": false,
          "internalType": "address",
          "name": "account",
          "type": "address"
        },
        {
          "indexed": false,
          "internalType": "uint256",
          "name": "shares",
          "type": "uint256"
        }
      ],
      "name": "PayeeAdded",
      "type": "event"
    },
    {
      "anonymous": false,
      "inputs": [
        {
          "indexed": false,
          "internalType": "address",
          "name": "from",
          "type": "address"
        },
        {
          "indexed": false,
          "internalType": "uint256",
          "name": "amount",
          "type": "uint256"
        }
      ],
      "name": "PaymentReceived",
      "type": "event"
    },
    {
      "anonymous": false,
      "inputs": [
        {
          "indexed": false,
          "internalType": "address",
          "name": "to",
          "type": "address"
        },
        {
          "indexed": false,
          "internalType": "uint256",
          "name": "amount",
          "type": "uint256"
        }
      ],
      "name": "PaymentReleased",
      "type": "event"
    },
    {
      "anonymous": false,
      "inputs": [
        {
          "indexed": true,
          "internalType": "address",
          "name": "from",
          "type": "address"
        },
        {
          "indexed": true,
          "internalType": "address",
          "name": "to",
          "type": "address"
        },
        {
          "indexed": true,
          "internalType": "uint256",
          "name": "tokenId",
          "type": "uint256"
        }
      ],
      "name": "Transfer",
      "type": "event"
    },
    {
      "inputs": [
        {
          "internalType": "address",
          "name": "",
          "type": "address"
        }
      ],
      "name": "_presaleClaimed",
      "outputs": [
        {
          "internalType": "uint256",
          "name": "",
          "type": "uint256"
        }
      ],
      "stateMutability": "view",
      "type": "function"
    },
    {
      "inputs": [
        {
          "internalType": "uint256",
          "name": "_newprice",
          "type": "uint256"
        }
      ],
      "name": "_setTokenPrice",
      "outputs": [],
      "stateMutability": "nonpayable",
      "type": "function"
    },
    {
      "inputs": [
        {
          "internalType": "address",
          "name": "to",
          "type": "address"
        },
        {
          "internalType": "uint256",
          "name": "tokenId",
          "type": "uint256"
        }
      ],
      "name": "approve",
      "outputs": [],
      "stateMutability": "nonpayable",
      "type": "function"
    },
    {
      "inputs": [
        {
          "internalType": "address",
          "name": "owner",
          "type": "address"
        }
      ],
      "name": "balanceOf",
      "outputs": [
        {
          "internalType": "uint256",
          "name": "",
          "type": "uint256"
        }
      ],
      "stateMutability": "view",
      "type": "function"
    },
    {
      "inputs": [],
      "name": "baseExtension",
      "outputs": [
        {
          "internalType": "string",
          "name": "",
          "type": "string"
        }
      ],
      "stateMutability": "view",
      "type": "function"
    },
    {
      "inputs": [],
      "name": "baseURI",
      "outputs": [
        {
          "internalType": "string",
          "name": "",
          "type": "string"
        }
      ],
      "stateMutability": "view",
      "type": "function"
    },
    {
      "inputs": [
        {
          "internalType": "uint256",
          "name": "tokenId",
          "type": "uint256"
        }
      ],
      "name": "getApproved",
      "outputs": [
        {
          "internalType": "address",
          "name": "",
          "type": "address"
        }
      ],
      "stateMutability": "view",
      "type": "function"
    },
    {
      "inputs": [
        {
          "internalType": "address",
          "name": "owner",
          "type": "address"
        },
        {
          "internalType": "address",
          "name": "operator",
          "type": "address"
        }
      ],
      "name": "isApprovedForAll",
      "outputs": [
        {
          "internalType": "bool",
          "name": "",
          "type": "bool"
        }
      ],
      "stateMutability": "view",
      "type": "function"
    },
    {
      "inputs": [],
      "name": "maxSupply",
      "outputs": [
        {
          "internalType": "uint256",
          "name": "",
          "type": "uint256"
        }
      ],
      "stateMutability": "view",
      "type": "function"
    },
    {
      "inputs": [],
      "name": "name",
      "outputs": [
        {
          "internalType": "string",
          "name": "",
          "type": "string"
        }
      ],
      "stateMutability": "view",
      "type": "function"
    },
    {
      "inputs": [],
      "name": "notRevealedUri",
      "outputs": [
        {
          "internalType": "string",
          "name": "",
          "type": "string"
        }
      ],
      "stateMutability": "view",
      "type": "function"
    },
    {
      "inputs": [],
      "name": "owner",
      "outputs": [
        {
          "internalType": "address",
          "name": "",
          "type": "address"
        }
      ],
      "stateMutability": "view",
      "type": "function"
    },
    {
      "inputs": [
        {
          "internalType": "uint256",
          "name": "tokenId",
          "type": "uint256"
        }
      ],
      "name": "ownerOf",
      "outputs": [
        {
          "internalType": "address",
          "name": "",
          "type": "address"
        }
      ],
      "stateMutability": "view",
      "type": "function"
    },
    {
      "inputs": [],
      "name": "paused",
      "outputs": [
        {
          "internalType": "bool",
          "name": "",
          "type": "bool"
        }
      ],
      "stateMutability": "view",
      "type": "function"
    },
    {
      "inputs": [
        {
          "internalType": "uint256",
          "name": "index",
          "type": "uint256"
        }
      ],
      "name": "payee",
      "outputs": [
        {
          "internalType": "address",
          "name": "",
          "type": "address"
        }
      ],
      "stateMutability": "view",
      "type": "function"
    },
    {
      "inputs": [],
      "name": "presaleM",
      "outputs": [
        {
          "internalType": "bool",
          "name": "",
          "type": "bool"
        }
      ],
      "stateMutability": "view",
      "type": "function"
    },
    {
      "inputs": [
        {
          "internalType": "address",
          "name": "account",
          "type": "address"
        },
        {
          "internalType": "uint256",
          "name": "_amount",
          "type": "uint256"
        },
        {
          "internalType": "bytes32[]",
          "name": "_proof",
          "type": "bytes32[]"
        }
      ],
      "name": "presaleMint",
      "outputs": [],
      "stateMutability": "payable",
      "type": "function"
    },
    {
      "inputs": [],
      "name": "publicM",
      "outputs": [
        {
          "internalType": "bool",
          "name": "",
          "type": "bool"
        }
      ],
      "stateMutability": "view",
      "type": "function"
    },
    {
      "inputs": [
        {
          "internalType": "uint256",
          "name": "_amount",
          "type": "uint256"
        }
      ],
      "name": "publicSaleMint",
      "outputs": [],
      "stateMutability": "payable",
      "type": "function"
    },
    {
      "inputs": [
        {
          "internalType": "address payable",
          "name": "account",
          "type": "address"
        }
      ],
      "name": "release",
      "outputs": [],
      "stateMutability": "nonpayable",
      "type": "function"
    },
    {
      "inputs": [
        {
          "internalType": "contract IERC20",
          "name": "token",
          "type": "address"
        },
        {
          "internalType": "address",
          "name": "account",
          "type": "address"
        }
      ],
      "name": "release",
      "outputs": [],
      "stateMutability": "nonpayable",
      "type": "function"
    },
    {
      "inputs": [
        {
          "internalType": "contract IERC20",
          "name": "token",
          "type": "address"
        },
        {
          "internalType": "address",
          "name": "account",
          "type": "address"
        }
      ],
      "name": "released",
      "outputs": [
        {
          "internalType": "uint256",
          "name": "",
          "type": "uint256"
        }
      ],
      "stateMutability": "view",
      "type": "function"
    },
    {
      "inputs": [
        {
          "internalType": "address",
          "name": "account",
          "type": "address"
        }
      ],
      "name": "released",
      "outputs": [
        {
          "internalType": "uint256",
          "name": "",
          "type": "uint256"
        }
      ],
      "stateMutability": "view",
      "type": "function"
    },
    {
      "inputs": [],
      "name": "renounceOwnership",
      "outputs": [],
      "stateMutability": "nonpayable",
      "type": "function"
    },
    {
      "inputs": [],
      "name": "reveal",
      "outputs": [],
      "stateMutability": "nonpayable",
      "type": "function"
    },
    {
      "inputs": [],
      "name": "revealed",
      "outputs": [
        {
          "internalType": "bool",
          "name": "",
          "type": "bool"
        }
      ],
      "stateMutability": "view",
      "type": "function"
    },
    {
      "inputs": [],
      "name": "root",
      "outputs": [
        {
          "internalType": "bytes32",
          "name": "",
          "type": "bytes32"
        }
      ],
      "stateMutability": "view",
      "type": "function"
    },
    {
      "inputs": [
        {
          "internalType": "address",
          "name": "from",
          "type": "address"
        },
        {
          "internalType": "address",
          "name": "to",
          "type": "address"
        },
        {
          "internalType": "uint256",
          "name": "tokenId",
          "type": "uint256"
        }
      ],
      "name": "safeTransferFrom",
      "outputs": [],
      "stateMutability": "nonpayable",
      "type": "function"
    },
    {
      "inputs": [
        {
          "internalType": "address",
          "name": "from",
          "type": "address"
        },
        {
          "internalType": "address",
          "name": "to",
          "type": "address"
        },
        {
          "internalType": "uint256",
          "name": "tokenId",
          "type": "uint256"
        },
        {
          "internalType": "bytes",
          "name": "_data",
          "type": "bytes"
        }
      ],
      "name": "safeTransferFrom",
      "outputs": [],
      "stateMutability": "nonpayable",
      "type": "function"
    },
    {
      "inputs": [
        {
          "internalType": "address",
          "name": "operator",
          "type": "address"
        },
        {
          "internalType": "bool",
          "name": "approved",
          "type": "bool"
        }
      ],
      "name": "setApprovalForAll",
      "outputs": [],
      "stateMutability": "nonpayable",
      "type": "function"
    },
    {
      "inputs": [
        {
          "internalType": "string",
          "name": "_newBaseExtension",
          "type": "string"
        }
      ],
      "name": "setBaseExtension",
      "outputs": [],
      "stateMutability": "nonpayable",
      "type": "function"
    },
    {
      "inputs": [
        {
          "internalType": "string",
          "name": "_tokenBaseURI",
          "type": "string"
        }
      ],
      "name": "setBaseURI",
      "outputs": [],
      "stateMutability": "nonpayable",
      "type": "function"
    },
    {
      "inputs": [
        {
          "internalType": "bytes32",
          "name": "merkleroot",
          "type": "bytes32"
        }
      ],
      "name": "setMerkleRoot",
      "outputs": [],
      "stateMutability": "nonpayable",
      "type": "function"
    },
    {
      "inputs": [
        {
          "internalType": "string",
          "name": "_notRevealedURI",
          "type": "string"
        }
      ],
      "name": "setNotRevealedURI",
      "outputs": [],
      "stateMutability": "nonpayable",
      "type": "function"
    },
    {
      "inputs": [
        {
          "internalType": "address",
          "name": "account",
          "type": "address"
        }
      ],
      "name": "shares",
      "outputs": [
        {
          "internalType": "uint256",
          "name": "",
          "type": "uint256"
        }
      ],
      "stateMutability": "view",
      "type": "function"
    },
    {
      "inputs": [
        {
          "internalType": "bytes4",
          "name": "interfaceId",
          "type": "bytes4"
        }
      ],
      "name": "supportsInterface",
      "outputs": [
        {
          "internalType": "bool",
          "name": "",
          "type": "bool"
        }
      ],
      "stateMutability": "view",
      "type": "function"
    },
    {
      "inputs": [],
      "name": "symbol",
      "outputs": [
        {
          "internalType": "string",
          "name": "",
          "type": "string"
        }
      ],
      "stateMutability": "view",
      "type": "function"
    },
    {
      "inputs": [],
      "name": "togglePause",
      "outputs": [],
      "stateMutability": "nonpayable",
      "type": "function"
    },
    {
      "inputs": [],
      "name": "togglePresale",
      "outputs": [],
      "stateMutability": "nonpayable",
      "type": "function"
    },
    {
      "inputs": [],
      "name": "togglePublicSale",
      "outputs": [],
      "stateMutability": "nonpayable",
      "type": "function"
    },
    {
      "inputs": [
        {
          "internalType": "uint256",
          "name": "tokenId",
          "type": "uint256"
        }
      ],
      "name": "tokenURI",
      "outputs": [
        {
          "internalType": "string",
          "name": "",
          "type": "string"
        }
      ],
      "stateMutability": "view",
      "type": "function"
    },
    {
      "inputs": [
        {
          "internalType": "contract IERC20",
          "name": "token",
          "type": "address"
        }
      ],
      "name": "totalReleased",
      "outputs": [
        {
          "internalType": "uint256",
          "name": "",
          "type": "uint256"
        }
      ],
      "stateMutability": "view",
      "type": "function"
    },
    {
      "inputs": [],
      "name": "totalReleased",
      "outputs": [
        {
          "internalType": "uint256",
          "name": "",
          "type": "uint256"
        }
      ],
      "stateMutability": "view",
      "type": "function"
    },
    {
      "inputs": [],
      "name": "totalShares",
      "outputs": [
        {
          "internalType": "uint256",
          "name": "",
          "type": "uint256"
        }
      ],
      "stateMutability": "view",
      "type": "function"
    },
    {
      "inputs": [],
      "name": "totalSupply",
      "outputs": [
        {
          "internalType": "uint256",
          "name": "",
          "type": "uint256"
        }
      ],
      "stateMutability": "view",
      "type": "function"
    },
    {
      "inputs": [
        {
          "internalType": "address",
          "name": "from",
          "type": "address"
        },
        {
          "internalType": "address",
          "name": "to",
          "type": "address"
        },
        {
          "internalType": "uint256",
          "name": "tokenId",
          "type": "uint256"
        }
      ],
      "name": "transferFrom",
      "outputs": [],
      "stateMutability": "nonpayable",
      "type": "function"
    },
    {
      "inputs": [
        {
          "internalType": "address",
          "name": "newOwner",
          "type": "address"
        }
      ],
      "name": "transferOwnership",
      "outputs": [],
      "stateMutability": "nonpayable",
      "type": "function"
    },
    {
      "stateMutability": "payable",
      "type": "receive"
    }
  ],
  "bytecode": "0x612774601155610100604052604160808181529062003b2360a039805162000030916013916020909101906200069c565b5060408051808201909152600580825264173539b7b760d91b60209092019182526200005f916014916200069c565b506015805463ffffffff19169055600a601655668e1bc9bf04000060185560408051606081018252601e8082526020820152602891810191909152620000aa90601a9060036200072b565b506040805160608101825273be87f5058fe5e090691eb2a449e813e4170419208152738a08e405fbc2fefdcf7d5be3775b3d94bf8200f860208201527310a0b7a26ce95df82eabd8330f0e7e6ee522cbbb918101919091526200011290601b9060036200076e565b503480156200012057600080fd5b5060405162003b6438038062003b64833981016040819052620001439162000810565b601b8054806020026020016040519081016040528092919081815260200182805480156200019b57602002820191906000526020600020905b81546001600160a01b031681526001909101906020018083116200017c575b5050505050601a805480602002602001604051908101604052809291908181526020018280548015620001ee57602002820191906000526020600020905b815481526020019060010190808311620001d9575b5050604080518082018252600a81526942656172436f6666656560b01b6020808301918252835180850190945260048452632122a0a960e11b908401528151919550919350620002439250600091906200069c565b508051620002599060019060208401906200069c565b5050506200027662000270620003e360201b60201c565b620003e7565b60016007558051825114620002ed5760405162461bcd60e51b815260206004820152603260248201527f5061796d656e7453706c69747465723a2070617965657320616e6420736861726044820152710cae640d8cadccee8d040dad2e6dac2e8c6d60731b60648201526084015b60405180910390fd5b6000825111620003405760405162461bcd60e51b815260206004820152601a60248201527f5061796d656e7453706c69747465723a206e6f207061796565730000000000006044820152606401620002e4565b60005b8251811015620003ac57620003978382815181106200036657620003666200090b565b60200260200101518383815181106200038357620003836200090b565b60200260200101516200043960201b60201c565b80620003a38162000937565b91505062000343565b505050600f829055601080546001600160a01b0319166001600160a01b038316179055620003da8362000627565b505050620009ad565b3390565b600680546001600160a01b038381166001600160a01b0319831681179093556040519116919082907f8be0079c531659141344cd1fd0a4f28419497f9722a3daafe3b4186f6b6457e090600090a35050565b6001600160a01b038216620004a65760405162461bcd60e51b815260206004820152602c60248201527f5061796d656e7453706c69747465723a206163636f756e74206973207468652060448201526b7a65726f206164647265737360a01b6064820152608401620002e4565b60008111620004f85760405162461bcd60e51b815260206004820152601d60248201527f5061796d656e7453706c69747465723a207368617265732061726520300000006044820152606401620002e4565b6001600160a01b0382166000908152600a602052604090205415620005745760405162461bcd60e51b815260206004820152602b60248201527f5061796d656e7453706c69747465723a206163636f756e7420616c726561647960448201526a206861732073686172657360a81b6064820152608401620002e4565b600c8054600181019091557fdf6966c971051c3d54ec59162606531493a51404a002842f56009d7e5cf4a8c70180546001600160a01b0319166001600160a01b0384169081179091556000908152600a60205260409020819055600854620005de90829062000955565b600855604080516001600160a01b0384168152602081018390527f40c340f65e17194d14ddddb073d3c9f888e3cb52b5aae0c6c7706b4fbc905fac910160405180910390a15050565b6006546001600160a01b03163314620006835760405162461bcd60e51b815260206004820181905260248201527f4f776e61626c653a2063616c6c6572206973206e6f7420746865206f776e65726044820152606401620002e4565b8051620006989060129060208401906200069c565b5050565b828054620006aa9062000970565b90600052602060002090601f016020900481019282620006ce576000855562000719565b82601f10620006e957805160ff191683800117855562000719565b8280016001018555821562000719579182015b8281111562000719578251825591602001919060010190620006fc565b5062000727929150620007c6565b5090565b82805482825590600052602060002090810192821562000719579160200282015b8281111562000719578251829060ff169055916020019190600101906200074c565b82805482825590600052602060002090810192821562000719579160200282015b828111156200071957825182546001600160a01b0319166001600160a01b039091161782556020909201916001909101906200078f565b5b80821115620007275760008155600101620007c7565b634e487b7160e01b600052604160045260246000fd5b80516001600160a01b03811681146200080b57600080fd5b919050565b6000806000606084860312156200082657600080fd5b83516001600160401b03808211156200083e57600080fd5b818601915086601f8301126200085357600080fd5b815181811115620008685762000868620007dd565b604051601f8201601f19908116603f01168101908382118183101715620008935762000893620007dd565b81604052828152602093508984848701011115620008b057600080fd5b600091505b82821015620008d45784820184015181830185015290830190620008b5565b82821115620008e65760008484830101525b80975050505080860151935050506200090260408501620007f3565b90509250925092565b634e487b7160e01b600052603260045260246000fd5b634e487b7160e01b600052601160045260246000fd5b60006000198214156200094e576200094e62000921565b5060010190565b600082198211156200096b576200096b62000921565b500190565b600181811c908216806200098557607f821691505b60208210811415620009a757634e487b7160e01b600052602260045260246000fd5b50919050565b61316680620009bd6000396000f3fe60806040526004361061028c5760003560e01c80638cc4de191161015a578063c87b56dd116100c1578063e33b7de31161007a578063e33b7de314610809578063e985e9c51461081e578063ebf0c7171461083e578063f2c4ce1e14610854578063f2fde38b14610874578063feeac4fb1461089457600080fd5b8063c87b56dd14610732578063ce7c2ac214610752578063d5abeb0114610788578063d79779b21461079e578063da3ef23f146107d4578063e222c7f9146107f457600080fd5b8063a45063c011610113578063a45063c01461069f578063a475b5dd146106c0578063b3ab66b0146106d5578063b88d4fde146106e8578063c4ae316814610708578063c66828621461071d57600080fd5b80638cc4de19146105d65780638da5cb5b14610603578063954dc3e31461062157806395d89b41146106345780639852595c14610649578063a22cb4651461067f57600080fd5b8063406072a9116101fe5780636352211e116101b75780636352211e1461052c5780636c0360eb1461054c57806370a0823114610561578063715018a6146105815780637cb64759146105965780638b83209b146105b657600080fd5b8063406072a91461044d57806342842e0e1461049357806348b75044146104b357806351830227146104d357806355f804b3146104f25780635c975abb1461051257600080fd5b80631798d58b116102505780631798d58b146103a057806318160ddd146103c057806319165587146103e357806323b872dd1461040357806334393743146104235780633a98ef391461043857600080fd5b806301ffc9a7146102da57806306fdde031461030f578063081812fc14610331578063081c8c4414610369578063095ea7b31461037e57600080fd5b366102d5577f6ef95f06320e7a25a04a175ca677b7052bdd97131872c2192525a629f51be77033604080516001600160a01b0390921682523460208301520160405180910390a1005b600080fd5b3480156102e657600080fd5b506102fa6102f5366004612883565b6108b4565b60405190151581526020015b60405180910390f35b34801561031b57600080fd5b50610324610906565b60405161030691906128f8565b34801561033d57600080fd5b5061035161034c36600461290b565b610998565b6040516001600160a01b039091168152602001610306565b34801561037557600080fd5b50610324610a32565b34801561038a57600080fd5b5061039e610399366004612939565b610ac0565b005b3480156103ac57600080fd5b506015546102fa9062010000900460ff1681565b3480156103cc57600080fd5b506103d5610bd6565b604051908152602001610306565b3480156103ef57600080fd5b5061039e6103fe366004612965565b610be6565b34801561040f57600080fd5b5061039e61041e366004612982565b610d14565b34801561042f57600080fd5b5061039e610d45565b34801561044457600080fd5b506008546103d5565b34801561045957600080fd5b506103d56104683660046129c3565b6001600160a01b039182166000908152600e6020908152604080832093909416825291909152205490565b34801561049f57600080fd5b5061039e6104ae366004612982565b610d8e565b3480156104bf57600080fd5b5061039e6104ce3660046129c3565b610da9565b3480156104df57600080fd5b506015546102fa90610100900460ff1681565b3480156104fe57600080fd5b5061039e61050d366004612a88565b610f91565b34801561051e57600080fd5b506015546102fa9060ff1681565b34801561053857600080fd5b5061035161054736600461290b565b610fd2565b34801561055857600080fd5b50610324611049565b34801561056d57600080fd5b506103d561057c366004612965565b611056565b34801561058d57600080fd5b5061039e6110dd565b3480156105a257600080fd5b5061039e6105b136600461290b565b611113565b3480156105c257600080fd5b506103516105d136600461290b565b611142565b3480156105e257600080fd5b506103d56105f1366004612965565b60176020526000908152604090205481565b34801561060f57600080fd5b506006546001600160a01b0316610351565b61039e61062f366004612ad1565b611172565b34801561064057600080fd5b5061032461146c565b34801561065557600080fd5b506103d5610664366004612965565b6001600160a01b03166000908152600b602052604090205490565b34801561068b57600080fd5b5061039e61069a366004612b6b565b61147b565b3480156106ab57600080fd5b506015546102fa906301000000900460ff1681565b3480156106cc57600080fd5b5061039e611486565b61039e6106e336600461290b565b6114c1565b3480156106f457600080fd5b5061039e610703366004612b99565b611693565b34801561071457600080fd5b5061039e6116cb565b34801561072957600080fd5b50610324611709565b34801561073e57600080fd5b5061032461074d36600461290b565b611716565b34801561075e57600080fd5b506103d561076d366004612965565b6001600160a01b03166000908152600a602052604090205490565b34801561079457600080fd5b506103d560115481565b3480156107aa57600080fd5b506103d56107b9366004612965565b6001600160a01b03166000908152600d602052604090205490565b3480156107e057600080fd5b5061039e6107ef366004612a88565b611895565b34801561080057600080fd5b5061039e6118d2565b34801561081557600080fd5b506009546103d5565b34801561082a57600080fd5b506102fa6108393660046129c3565b61191d565b34801561084a57600080fd5b506103d5600f5481565b34801561086057600080fd5b5061039e61086f366004612a88565b6119ed565b34801561088057600080fd5b5061039e61088f366004612965565b611a2a565b3480156108a057600080fd5b5061039e6108af36600461290b565b611ac5565b60006001600160e01b031982166380ac58cd60e01b14806108e557506001600160e01b03198216635b5e139f60e01b145b8061090057506301ffc9a760e01b6001600160e01b03198316145b92915050565b60606000805461091590612c19565b80601f016020809104026020016040519081016040528092919081815260200182805461094190612c19565b801561098e5780601f106109635761010080835404028352916020019161098e565b820191906000526020600020905b81548152906001019060200180831161097157829003601f168201915b5050505050905090565b6000818152600260205260408120546001600160a01b0316610a165760405162461bcd60e51b815260206004820152602c60248201527f4552433732313a20617070726f76656420717565727920666f72206e6f6e657860448201526b34b9ba32b73a103a37b5b2b760a11b60648201526084015b60405180910390fd5b506000908152600460205260409020546001600160a01b031690565b60138054610a3f90612c19565b80601f0160208091040260200160405190810160405280929190818152602001828054610a6b90612c19565b8015610ab85780601f10610a8d57610100808354040283529160200191610ab8565b820191906000526020600020905b815481529060010190602001808311610a9b57829003601f168201915b505050505081565b6000610acb82610fd2565b9050806001600160a01b0316836001600160a01b03161415610b395760405162461bcd60e51b815260206004820152602160248201527f4552433732313a20617070726f76616c20746f2063757272656e74206f776e656044820152603960f91b6064820152608401610a0d565b336001600160a01b0382161480610b555750610b55813361191d565b610bc75760405162461bcd60e51b815260206004820152603860248201527f4552433732313a20617070726f76652063616c6c6572206973206e6f74206f7760448201527f6e6572206e6f7220617070726f76656420666f7220616c6c00000000000000006064820152608401610a0d565b610bd18383611af4565b505050565b6000610be160195490565b905090565b6001600160a01b0381166000908152600a6020526040902054610c1b5760405162461bcd60e51b8152600401610a0d90612c54565b6000610c2660095490565b610c309047612cb0565b90506000610c5d8383610c58866001600160a01b03166000908152600b602052604090205490565b611b62565b905080610c7c5760405162461bcd60e51b8152600401610a0d90612cc8565b6001600160a01b0383166000908152600b602052604081208054839290610ca4908490612cb0565b925050819055508060096000828254610cbd9190612cb0565b90915550610ccd90508382611ba0565b604080516001600160a01b0385168152602081018390527fdf20fd1e76bc69d672e4814fafb2c449bba3a5369d8359adf9e05e6fde87b056910160405180910390a1505050565b610d1e3382611cb9565b610d3a5760405162461bcd60e51b8152600401610a0d90612d13565b610bd1838383611d8f565b6006546001600160a01b03163314610d6f5760405162461bcd60e51b8152600401610a0d90612d64565b6015805462ff0000198116620100009182900460ff1615909102179055565b610bd183838360405180602001604052806000815250611693565b6001600160a01b0381166000908152600a6020526040902054610dde5760405162461bcd60e51b8152600401610a0d90612c54565b6001600160a01b0382166000908152600d60205260408120546040516370a0823160e01b81523060048201526001600160a01b038516906370a082319060240160206040518083038186803b158015610e3657600080fd5b505afa158015610e4a573d6000803e3d6000fd5b505050506040513d601f19601f82011682018060405250810190610e6e9190612d99565b610e789190612cb0565b90506000610eb18383610c5887876001600160a01b039182166000908152600e6020908152604080832093909416825291909152205490565b905080610ed05760405162461bcd60e51b8152600401610a0d90612cc8565b6001600160a01b038085166000908152600e6020908152604080832093871683529290529081208054839290610f07908490612cb0565b90915550506001600160a01b0384166000908152600d602052604081208054839290610f34908490612cb0565b90915550610f459050848483611f2b565b604080516001600160a01b038581168252602082018490528616917f3be5b7a71e84ed12875d241991c70855ac5817d847039e17a9d895c1ceb0f18a910160405180910390a250505050565b6006546001600160a01b03163314610fbb5760405162461bcd60e51b8152600401610a0d90612d64565b8051610fce9060129060208401906127d4565b5050565b6000818152600260205260408120546001600160a01b0316806109005760405162461bcd60e51b815260206004820152602960248201527f4552433732313a206f776e657220717565727920666f72206e6f6e657869737460448201526832b73a103a37b5b2b760b91b6064820152608401610a0d565b60128054610a3f90612c19565b60006001600160a01b0382166110c15760405162461bcd60e51b815260206004820152602a60248201527f4552433732313a2062616c616e636520717565727920666f7220746865207a65604482015269726f206164647265737360b01b6064820152608401610a0d565b506001600160a01b031660009081526003602052604090205490565b6006546001600160a01b031633146111075760405162461bcd60e51b8152600401610a0d90612d64565b6111116000611f7d565b565b6006546001600160a01b0316331461113d5760405162461bcd60e51b8152600401610a0d90612d64565b600f55565b6000600c828154811061115757611157612db2565b6000918252602090912001546001600160a01b031692915050565b81816111e982828080602002602001604051908101604052809392919081815260200183836020028082843760009201919091525050600f546040516bffffffffffffffffffffffff193360601b166020820152909250603401905060405160208183030381529060405280519060200120611fcf565b151560011461120a5760405162461bcd60e51b8152600401610a0d90612dc8565b3332146112295760405162461bcd60e51b8152600401610a0d90612dc8565b336001600160a01b0387161461128b5760405162461bcd60e51b815260206004820152602160248201527f4265617220436f6666656520436c7562204e46543a204e6f7420616c6c6f77656044820152601960fa1b6064820152608401610a0d565b60155462010000900460ff166112ef5760405162461bcd60e51b8152602060048201526024808201527f4265617220436f6666656520436c7562204e46543a2050726573616c652069736044820152631027a32360e11b6064820152608401610a0d565b60155460ff16156113125760405162461bcd60e51b8152600401610a0d90612df4565b6016548511156113345760405162461bcd60e51b8152600401610a0d90612e3c565b60165433600090815260176020526040902054611352908790612cb0565b11156113705760405162461bcd60e51b8152600401610a0d90612e3c565b600061137b60195490565b60115490915061138b8783612cb0565b11156113eb5760405162461bcd60e51b815260206004820152602960248201527f4265617220436f6666656520436c7562204e46543a206d617820737570706c7960448201526808195e18d95959195960ba1b6064820152608401610a0d565b34866018546113fa9190612e8f565b11156114185760405162461bcd60e51b8152600401610a0d90612eae565b3360009081526017602052604081208054889290611437908490612cb0565b90915550600090505b8681101561146257611450611fe5565b8061145a81612efa565b915050611440565b5050505050505050565b60606001805461091590612c19565b610fce33838361206a565b6006546001600160a01b031633146114b05760405162461bcd60e51b8152600401610a0d90612d64565b6015805461ff001916610100179055565b3332146114e05760405162461bcd60e51b8152600401610a0d90612dc8565b6015546301000000900460ff166115495760405162461bcd60e51b815260206004820152602760248201527f4265617220436f6666656520436c7562204e46543a205075626c696353616c656044820152661034b99027a32360c91b6064820152608401610a0d565b60155460ff161561156c5760405162461bcd60e51b8152600401610a0d90612df4565b600081116115c65760405162461bcd60e51b815260206004820152602160248201527f4265617220436f6666656520436c7562204e46543a207a65726f20616d6f756e6044820152601d60fa1b6064820152608401610a0d565b60006115d160195490565b6011549091506115e18383612cb0565b11156116415760405162461bcd60e51b815260206004820152602960248201527f4265617220436f6666656520436c7562204e46543a204d617820737570706c7960448201526808195e18d95959195960ba1b6064820152608401610a0d565b34826018546116509190612e8f565b111561166e5760405162461bcd60e51b8152600401610a0d90612eae565b60005b82811015610bd157611681611fe5565b8061168b81612efa565b915050611671565b61169d3383611cb9565b6116b95760405162461bcd60e51b8152600401610a0d90612d13565b6116c584848484612139565b50505050565b6006546001600160a01b031633146116f55760405162461bcd60e51b8152600401610a0d90612d64565b6015805460ff19811660ff90911615179055565b60148054610a3f90612c19565b6000818152600260205260409020546060906001600160a01b03166117955760405162461bcd60e51b815260206004820152602f60248201527f4552433732314d657461646174613a2055524920717565727920666f72206e6f60448201526e3732bc34b9ba32b73a103a37b5b2b760891b6064820152608401610a0d565b601554610100900460ff1661183657601380546117b190612c19565b80601f01602080910402602001604051908101604052809291908181526020018280546117dd90612c19565b801561182a5780601f106117ff5761010080835404028352916020019161182a565b820191906000526020600020905b81548152906001019060200180831161180d57829003601f168201915b50505050509050919050565b600061184061216c565b90506000815111611860576040518060200160405280600081525061188e565b8061186a8461217b565b601460405160200161187e93929190612f15565b6040516020818303038152906040525b9392505050565b6006546001600160a01b031633146118bf5760405162461bcd60e51b8152600401610a0d90612d64565b8051610fce9060149060208401906127d4565b6006546001600160a01b031633146118fc5760405162461bcd60e51b8152600401610a0d90612d64565b6015805463ff00000019811663010000009182900460ff1615909102179055565b60105460405163c455279160e01b81526001600160a01b03848116600483015260009281169190841690829063c45527919060240160206040518083038186803b15801561196a57600080fd5b505afa15801561197e573d6000803e3d6000fd5b505050506040513d601f19601f820116820180604052508101906119a29190612fd9565b6001600160a01b031614156119bb576001915050610900565b6001600160a01b0380851660009081526005602090815260408083209387168352929052205460ff165b949350505050565b6006546001600160a01b03163314611a175760405162461bcd60e51b8152600401610a0d90612d64565b8051610fce9060139060208401906127d4565b6006546001600160a01b03163314611a545760405162461bcd60e51b8152600401610a0d90612d64565b6001600160a01b038116611ab95760405162461bcd60e51b815260206004820152602660248201527f4f776e61626c653a206e6577206f776e657220697320746865207a65726f206160448201526564647265737360d01b6064820152608401610a0d565b611ac281611f7d565b50565b6006546001600160a01b03163314611aef5760405162461bcd60e51b8152600401610a0d90612d64565b601855565b600081815260046020526040902080546001600160a01b0319166001600160a01b0384169081179091558190611b2982610fd2565b6001600160a01b03167f8c5be1e5ebec7d5bd14f71427d1e84f3dd0314c0f7b2291e5b200ac8c7c3b92560405160405180910390a45050565b6008546001600160a01b0384166000908152600a602052604081205490918391611b8c9086612e8f565b611b96919061300c565b6119e59190613020565b80471015611bf05760405162461bcd60e51b815260206004820152601d60248201527f416464726573733a20696e73756666696369656e742062616c616e63650000006044820152606401610a0d565b6000826001600160a01b03168260405160006040518083038185875af1925050503d8060008114611c3d576040519150601f19603f3d011682016040523d82523d6000602084013e611c42565b606091505b5050905080610bd15760405162461bcd60e51b815260206004820152603a60248201527f416464726573733a20756e61626c6520746f2073656e642076616c75652c207260448201527f6563697069656e74206d617920686176652072657665727465640000000000006064820152608401610a0d565b6000818152600260205260408120546001600160a01b0316611d325760405162461bcd60e51b815260206004820152602c60248201527f4552433732313a206f70657261746f7220717565727920666f72206e6f6e657860448201526b34b9ba32b73a103a37b5b2b760a11b6064820152608401610a0d565b6000611d3d83610fd2565b9050806001600160a01b0316846001600160a01b03161480611d645750611d64818561191d565b806119e55750836001600160a01b0316611d7d84610998565b6001600160a01b031614949350505050565b826001600160a01b0316611da282610fd2565b6001600160a01b031614611e065760405162461bcd60e51b815260206004820152602560248201527f4552433732313a207472616e736665722066726f6d20696e636f72726563742060448201526437bbb732b960d91b6064820152608401610a0d565b6001600160a01b038216611e685760405162461bcd60e51b8152602060048201526024808201527f4552433732313a207472616e7366657220746f20746865207a65726f206164646044820152637265737360e01b6064820152608401610a0d565b611e73600082611af4565b6001600160a01b0383166000908152600360205260408120805460019290611e9c908490613020565b90915550506001600160a01b0382166000908152600360205260408120805460019290611eca908490612cb0565b909155505060008181526002602052604080822080546001600160a01b0319166001600160a01b0386811691821790925591518493918716917fddf252ad1be2c89b69c2b068fc378daa952ba7f163c4a11628f55a4df523b3ef91a4505050565b604080516001600160a01b038416602482015260448082018490528251808303909101815260649091019091526020810180516001600160e01b031663a9059cbb60e01b179052610bd1908490612279565b600680546001600160a01b038381166001600160a01b0319831681179093556040519116919082907f8be0079c531659141344cd1fd0a4f28419497f9722a3daafe3b4186f6b6457e090600090a35050565b600082611fdc858461234b565b14949350505050565b600260075414156120385760405162461bcd60e51b815260206004820152601f60248201527f5265656e7472616e637947756172643a207265656e7472616e742063616c6c006044820152606401610a0d565b600260075561204b601980546001019055565b600061205660195490565b905061206233826123bf565b506001600755565b816001600160a01b0316836001600160a01b031614156120cc5760405162461bcd60e51b815260206004820152601960248201527f4552433732313a20617070726f766520746f2063616c6c6572000000000000006044820152606401610a0d565b6001600160a01b03838116600081815260056020908152604080832094871680845294825291829020805460ff191686151590811790915591519182527f17307eab39ab6107e8899845ad3d59bd9653f200f220920489ca2b5937696c31910160405180910390a3505050565b612144848484611d8f565b612150848484846123d9565b6116c55760405162461bcd60e51b8152600401610a0d90613037565b60606012805461091590612c19565b60608161219f5750506040805180820190915260018152600360fc1b602082015290565b8160005b81156121c957806121b381612efa565b91506121c29050600a8361300c565b91506121a3565b60008167ffffffffffffffff8111156121e4576121e46129fc565b6040519080825280601f01601f19166020018201604052801561220e576020820181803683370190505b5090505b84156119e557612223600183613020565b9150612230600a86613089565b61223b906030612cb0565b60f81b81838151811061225057612250612db2565b60200101906001600160f81b031916908160001a905350612272600a8661300c565b9450612212565b60006122ce826040518060400160405280602081526020017f5361666545524332303a206c6f772d6c6576656c2063616c6c206661696c6564815250856001600160a01b03166124e69092919063ffffffff16565b805190915015610bd157808060200190518101906122ec919061309d565b610bd15760405162461bcd60e51b815260206004820152602a60248201527f5361666545524332303a204552433230206f7065726174696f6e20646964206e6044820152691bdd081cdd58d8d9595960b21b6064820152608401610a0d565b600081815b84518110156123b757600085828151811061236d5761236d612db2565b6020026020010151905080831161239357600083815260208290526040902092506123a4565b600081815260208490526040902092505b50806123af81612efa565b915050612350565b509392505050565b610fce8282604051806020016040528060008152506124f5565b60006001600160a01b0384163b156124db57604051630a85bd0160e11b81526001600160a01b0385169063150b7a029061241d9033908990889088906004016130ba565b602060405180830381600087803b15801561243757600080fd5b505af1925050508015612467575060408051601f3d908101601f19168201909252612464918101906130f7565b60015b6124c1573d808015612495576040519150601f19603f3d011682016040523d82523d6000602084013e61249a565b606091505b5080516124b95760405162461bcd60e51b8152600401610a0d90613037565b805181602001fd5b6001600160e01b031916630a85bd0160e11b1490506119e5565b506001949350505050565b60606119e58484600085612528565b6124ff8383612659565b61250c60008484846123d9565b610bd15760405162461bcd60e51b8152600401610a0d90613037565b6060824710156125895760405162461bcd60e51b815260206004820152602660248201527f416464726573733a20696e73756666696369656e742062616c616e636520666f6044820152651c8818d85b1b60d21b6064820152608401610a0d565b6001600160a01b0385163b6125e05760405162461bcd60e51b815260206004820152601d60248201527f416464726573733a2063616c6c20746f206e6f6e2d636f6e74726163740000006044820152606401610a0d565b600080866001600160a01b031685876040516125fc9190613114565b60006040518083038185875af1925050503d8060008114612639576040519150601f19603f3d011682016040523d82523d6000602084013e61263e565b606091505b509150915061264e82828661279b565b979650505050505050565b6001600160a01b0382166126af5760405162461bcd60e51b815260206004820181905260248201527f4552433732313a206d696e7420746f20746865207a65726f20616464726573736044820152606401610a0d565b6000818152600260205260409020546001600160a01b0316156127145760405162461bcd60e51b815260206004820152601c60248201527f4552433732313a20746f6b656e20616c7265616479206d696e746564000000006044820152606401610a0d565b6001600160a01b038216600090815260036020526040812080546001929061273d908490612cb0565b909155505060008181526002602052604080822080546001600160a01b0319166001600160a01b03861690811790915590518392907fddf252ad1be2c89b69c2b068fc378daa952ba7f163c4a11628f55a4df523b3ef908290a45050565b606083156127aa57508161188e565b8251156127ba5782518084602001fd5b8160405162461bcd60e51b8152600401610a0d91906128f8565b8280546127e090612c19565b90600052602060002090601f0160209004810192826128025760008555612848565b82601f1061281b57805160ff1916838001178555612848565b82800160010185558215612848579182015b8281111561284857825182559160200191906001019061282d565b50612854929150612858565b5090565b5b808211156128545760008155600101612859565b6001600160e01b031981168114611ac257600080fd5b60006020828403121561289557600080fd5b813561188e8161286d565b60005b838110156128bb5781810151838201526020016128a3565b838111156116c55750506000910152565b600081518084526128e48160208601602086016128a0565b601f01601f19169290920160200192915050565b60208152600061188e60208301846128cc565b60006020828403121561291d57600080fd5b5035919050565b6001600160a01b0381168114611ac257600080fd5b6000806040838503121561294c57600080fd5b823561295781612924565b946020939093013593505050565b60006020828403121561297757600080fd5b813561188e81612924565b60008060006060848603121561299757600080fd5b83356129a281612924565b925060208401356129b281612924565b929592945050506040919091013590565b600080604083850312156129d657600080fd5b82356129e181612924565b915060208301356129f181612924565b809150509250929050565b634e487b7160e01b600052604160045260246000fd5b600067ffffffffffffffff80841115612a2d57612a2d6129fc565b604051601f8501601f19908116603f01168101908282118183101715612a5557612a556129fc565b81604052809350858152868686011115612a6e57600080fd5b858560208301376000602087830101525050509392505050565b600060208284031215612a9a57600080fd5b813567ffffffffffffffff811115612ab157600080fd5b8201601f81018413612ac257600080fd5b6119e584823560208401612a12565b60008060008060608587031215612ae757600080fd5b8435612af281612924565b935060208501359250604085013567ffffffffffffffff80821115612b1657600080fd5b818701915087601f830112612b2a57600080fd5b813581811115612b3957600080fd5b8860208260051b8501011115612b4e57600080fd5b95989497505060200194505050565b8015158114611ac257600080fd5b60008060408385031215612b7e57600080fd5b8235612b8981612924565b915060208301356129f181612b5d565b60008060008060808587031215612baf57600080fd5b8435612bba81612924565b93506020850135612bca81612924565b925060408501359150606085013567ffffffffffffffff811115612bed57600080fd5b8501601f81018713612bfe57600080fd5b612c0d87823560208401612a12565b91505092959194509250565b600181811c90821680612c2d57607f821691505b60208210811415612c4e57634e487b7160e01b600052602260045260246000fd5b50919050565b60208082526026908201527f5061796d656e7453706c69747465723a206163636f756e7420686173206e6f2060408201526573686172657360d01b606082015260800190565b634e487b7160e01b600052601160045260246000fd5b60008219821115612cc357612cc3612c9a565b500190565b6020808252602b908201527f5061796d656e7453706c69747465723a206163636f756e74206973206e6f742060408201526a191d59481c185e5b595b9d60aa1b606082015260800190565b60208082526031908201527f4552433732313a207472616e736665722063616c6c6572206973206e6f74206f6040820152701ddb995c881b9bdc88185c1c1c9bdd9959607a1b606082015260800190565b6020808252818101527f4f776e61626c653a2063616c6c6572206973206e6f7420746865206f776e6572604082015260600190565b600060208284031215612dab57600080fd5b5051919050565b634e487b7160e01b600052603260045260246000fd5b6020808252601290820152712737ba1030b63637bbb2b21037b934b3b4b760711b604082015260600190565b60208082526028908201527f4265617220436f6666656520436c7562204e46543a20436f6e747261637420696040820152671cc81c185d5cd95960c21b606082015260800190565b60208082526033908201527f4265617220436f6666656520436c7562204e46543a20596f752063616e2774206040820152726d696e7420736f206d75636820746f6b656e7360681b606082015260800190565b6000816000190483118215151615612ea957612ea9612c9a565b500290565b6020808252602c908201527f4265617220436f6666656520436c7562204e46543a204e6f7420656e6f75676860408201526b08195d1a195c9cc81cd95b9d60a21b606082015260800190565b6000600019821415612f0e57612f0e612c9a565b5060010190565b600084516020612f288285838a016128a0565b855191840191612f3b8184848a016128a0565b8554920191600090600181811c9080831680612f5857607f831692505b858310811415612f7657634e487b7160e01b85526022600452602485fd5b808015612f8a5760018114612f9b57612fc8565b60ff19851688528388019550612fc8565b60008b81526020902060005b85811015612fc05781548a820152908401908801612fa7565b505083880195505b50939b9a5050505050505050505050565b600060208284031215612feb57600080fd5b815161188e81612924565b634e487b7160e01b600052601260045260246000fd5b60008261301b5761301b612ff6565b500490565b60008282101561303257613032612c9a565b500390565b60208082526032908201527f4552433732313a207472616e7366657220746f206e6f6e20455243373231526560408201527131b2b4bb32b91034b6b83632b6b2b73a32b960711b606082015260800190565b60008261309857613098612ff6565b500690565b6000602082840312156130af57600080fd5b815161188e81612b5d565b6001600160a01b03858116825284166020820152604081018390526080606082018190526000906130ed908301846128cc565b9695505050505050565b60006020828403121561310957600080fd5b815161188e8161286d565b600082516131268184602087016128a0565b919091019291505056fea2646970667358221220ea86bad1aece96de993e470dff76ef140303cc73ea135b52d0a43a93d41a975664736f6c63430008090033697066733a2f2f516d534a455a6f4a6666447850416a573467756b554e514564727272326861725757686d4848624747424c73664d2f68696464656e2e6a736f6e",
  "linkReferences": {},
  "deployedLinkReferences": {}
}