{
  "_format": "hh-sol-artifact-1",
  "contractName": "ProxyRegistry",
  "sourceName": "contracts/BearCoffee.sol",
  "abi": [
    {
      "inputs": [
        {
          "internalType": "address",
          "name": "",
          "type": "address"
        }
      ],
      "name": "proxies",
      "outputs": [
        {
          "internalType": "contract OwnableDelegateProxy",
          "name": "",
          "type": "address"
        }
      ],
      "stateMutability": "view",
      "type": "function"
    }
  ],
  "bytecode": "0x608060405234801561001057600080fd5b5060d38061001f6000396000f3fe6080604052348015600f57600080fd5b506004361060285760003560e01c8063c455279114602d575b600080fd5b60536038366004606f565b6000602081905290815260409020546001600160a01b031681565b6040516001600160a01b03909116815260200160405180910390f35b600060208284031215608057600080fd5b81356001600160a01b0381168114609657600080fd5b939250505056fea2646970667358221220614c46ccda51ec155117280a07c6e26d07b69ee81704a4660b9d4945ce6aea5a64736f6c63430008090033",
  "linkReferences": {},
  "deployedLinkReferences": {}
}